:020000040800F2
:10000000C8040020B101000897180008C3150008B3
:100010009518000851060008E519000800000000C6
:100020000000000000000000000000009B18000815
:100030005306000800000000991800089D180008E9
:10004000CB010008CB010008CB010008CB01000860
:10005000CB010008CB010008CB010008CB01000850
:10006000CB010008CB010008CB010008CB01000840
:10007000CB010008CB010008CB010008CB01000830
:10008000CB010008CB0100081D050008000000009E
:10009000000000000000000000000000CB0100088C
:1000A000CB01000841190008CB010008CB01000872
:1000B000CB010008CB010008CB010008CB010008F0
:1000C000CB010008CB010008CB010008CB010008E0
:1000D000CB010008CB010008CB01000800000000A4
:1000E000CB010008CB010008CB0100080000000094
:1000F000000000000000000000000000CB0100082C
:1001000000000000CB010008CB010008CB01000873
:1001100000000000000000000000000000000000DF
:10012000CB010008CB010008CB010008CB0100087F
:10013000CB010008000000000000000000000000EB
:10014000000000000000000000000000CB010008DB
:10015000CB010008CB010008CB010008CB0100084F
:10016000CB010008CB0100080000000000000000E7
:10017000000000000000000000000000000000007F
:1001800000000000CB01000800000000000000009B
:10019000CB010008CB010008DFF810D000F0ACF96B
:1001A00000480047251A0008AFF30080C80400206B
:1001B0000648804706480047FEE7FEE7FEE7FEE701
:1001C000FEE7FEE7FEE7FEE7FEE7FEE7311900087F
:1001D000990100082DE9F05F0546002092469B46F4
:1001E00088460646814640241BE02846414647464D
:1001F000224600F0DCF853465A46C01A914110D30B
:1002000011461846224600F0C3F82D1A67EB010884
:100210004F4622460120002100F0BAF817EB0009F2
:100220004E41201EA4F10104DFDC484631462A4637
:100230004346BDE8F09FD2B201E000F8012B491E11
:10024000FBD270470022F6E710B513460A46044673
:100250001946FFF7F0FF204610BD2DE9FE4F81EA59
:10026000030404F0004421F0004100944FF0000B1F
:1002700023F0004350EA01045ED052EA03045BD04D
:10028000C3F30A54C1F30A552C44A4F2F334019485
:10029000A0FB0254C1F3130141F48011C3F3130313
:1002A00043F4801301FB024400FB034E840A970AC7
:1002B00044EA815447EA8357A4FB076802958D0AF4
:1002C00005FB07854FEA932C04FB0C542705029D80
:1002D0004FEA065847EA1637B5EB08056EEB070CF0
:1002E000870E920E47EA811742EA8312A7FB0201AA
:1002F000B6EB0B0164EB00042B0D43EA0C335E18E4
:1003000044EB1C50DA465146E7FB0201C5F31304E7
:100310004FEA0B3343EA14534FEA0432019C43EA99
:100320000603A4F10C040294009CCDE900B400F093
:1003300094F803B0BDE8F08F00200146F9E70EB550
:1003400040F2334102910021CDE900110A460B46EB
:1003500000F083F803B000BD01F0004330B421F099
:10036000004150EA010206D00A0DA2F56072C1F305
:100370001301002A02DC30BC00207047440F44EA1D
:10038000C104C100E01830BC00EBC25000F01FB83F
:10039000202A04DB203A00FA02F100207047914045
:1003A000C2F1200320FA03F3194390407047202A3A
:1003B00004DB203A21FA02F00021704721FA02F30F
:1003C000D040C2F1200291400843194670470029ED
:1003D000A8BF7047401C490008BF20F001007047CB
:1003E00010B4B0FA80FC00FA0CF050EA010404BF2B
:1003F00010BC704749B1CCF1200421FA04F411FA81
:100400000CF118BF012121430843A3EB0C01CB1DC4
:100410004FEA00614FEA102042BF002010BC704735
:1004200000EBC35010440029A4BF10BC7047401C0F
:10043000490008BF20F0010010BC704710B5141E21
:1004400073F1000408DA401C41F1000192185B418D
:100450001A4301D120F0010010BD2DE9F04D924664
:100460009B4611B1B1FA81F202E0B0FA80F220327B
:100470009046FFF78DFF04460F4640EA0A0041EA26
:100480000B0153465A46084313D0114653EA010064
:1004900019D0C8F140025046FFF789FF05460E46C5
:1004A000504659464246FFF773FF084305D00120E6
:1004B00004E020463946BDE8F08D0020054346EAB9
:1004C000E0762C4337430A986305E40AA0EB080062
:1004D0000022FD0A44EA47540A3002D500200146B2
:1004E000E9E7010510196941DDE90845001969418D
:1004F000BDE8F04DA2E70000064C074D06E0E068BD
:1005000040F0010394E8070098471034AC42F6D35A
:10051000FFF746FE981A0008B81A0008014800F0D4
:1005200052B9000014000020464910B54A6822F470
:1005300040324A604A6843681A434A6001684A6820
:1005400022F480724A6001684A68036942EA032221
:100550004A6001684A6822F040724A6001684A684D
:1005600083681A434A6001688A6822F400628A60DC
:1005700001688A68C3681A438A60816A6FF0706292
:10058000D14201688A6822F070628A6001688A68D4
:100590000CD0836A1A438A6001688A6822F040524C
:1005A0008A6001688A68C36A1A4301E022F04052F7
:1005B0008A6001688A6822F002028A6001688A689B
:1005C000037E42EA43028A6090F820100029016805
:1005D0004A680FD042F400624A6001684A6822F417
:1005E00060424A6001684A68174C436A04EB43332F
:1005F0001A4301E022F400624A600168CA6A22F4E8
:100600007002CA620168CA6A838B104C04EB035300
:100610001A43CA6201688A6822F400728A6001681B
:100620008A6890F8303042EA43228A6001688A681A
:1006300022F480628A6001688A68406942EA802008
:10064000886010BD0023014000E0FFFF0000F0FFC4
:10065000FEE770477047000078B50024009490F8DA
:100660003C20012A19D0012280F83C200A68072387
:100670000568092A13D9EE680A3A02EB4202934050
:100680009E43EE600B788A680A3B03EB43039A4073
:100690000368DD682A43DA6010E0022078BD2E6925
:1006A00002EB420293409E432E610B788A6803EB73
:1006B00043039A4003681D692A431A614A681F234D
:1006C000072A13D205686E6B521E02EB820293401A
:1006D0009E436E630A8893B20A79521E02EB82022D
:1006E00093400268556B2B43536327E005680D2A3E
:1006F00012D22E6BD21F02EB820293409E432E63D6
:100700000B790A88DB1F92B203EB83039A400368DC
:100710001D6B2A431A6311E0EE6A0D3A02EB820266
:1007200093409E43EE620B790A880D3B92B203EB35
:1007300083039A400368DD6A2A43DA621B4B05682B
:10074000194A9D420AD10D68122D07D1556825F42A
:1007500000055560556845F48005556005689D4263
:100760001DD1134D0B68AB4201D0112B17D153682B
:1007700023F480035360536843F400035360096813
:10078000A9420CD10B490C4A0968B1FBF2F101EB0B
:100790008101490000E0491E00910029FBD180F849
:1007A0003C40002078BD00000023014000200140B3
:1007B000120000101000002040420F0070477047E8
:1007C0000068C06C704770B50446006801684268F4
:1007D000C1F34001C2F3401251B34AB3216CC906C0
:1007E00003D4216C41F400712164816811F0405FF1
:1007F00017D1217EA9B9C16A11F4700F02D08168A6
:1008000049050ED4416821F020014160206C20F49C
:1008100080702064206CC00403D4206C40F0010080
:1008200020642046FFF7CAFF21686FF012000860BD
:10083000206801684268C1F38001C2F3C01289B325
:1008400082B3216CC90603D4216C41F400512164A8
:10085000816811F4401F1ED1816B11F4401F02D03A
:100860008168490517D44168490514D4816811F09D
:10087000405F10D1217E71B9416821F08001416053
:10088000206C20F480502064206CC00503D4206CC0
:1008900040F0010020642046FFF7DCFE21686FF085
:1008A0000C00086020680168426811F0010FC2F373
:1008B00080120ED06AB10068C0070AD0206C40F4E4
:1008C00080302064204600F046F821686FF0010077
:1008D0000860206801684268C1F34011C2F3806279
:1008E00000290DD0002A0BD0616C41F00201616437
:1008F0006FF0200505602046FFF761FF2068056066
:1009000070BD70B504004FF0000503D0206C0026C8
:1009100010B107E0012070BD204600F01DF86664AC
:1009200084F83C60206CC00610D4206C20F4885001
:1009300040F0020020642046FFF7F6FD6664206C5C
:1009400020F0020040F00100206400E0012584F85E
:100950003C60284670BD704710B586B0044614212F
:100960006846FFF76FFC15492068884224D1144877
:100970000021026842F480720260006800F4807016
:1009800005900F481438026842F0010202600068C6
:1009900000F001000590082000900320CDE901013E
:1009A0006946084800F07EF800220221122000F07B
:1009B000DBF9122000F0CAF906B010BD002001409A
:1009C000443802400000024018B50021009190F820
:1009D0003C20012A07D0012280F83C20026893685D
:1009E000DB0702D011E0022018BD936843F0010339
:1009F0009360274A274B1268B2FBF3F202EB4202E4
:100A000000E0521E0092002AFBD102689368DB07C7
:100A100033D0036C40F20164A34343F48073036456
:100A200053685B0505D5036C23F4005343F48053EE
:100A30000364036CDB0404D5436C23F006034364B6
:100A400000E0416480F83C10134B6FF0220111600C
:100A500001684A68114C22434A6059680068C90617
:100A600002D00F49884210D1816811F0405F0CD14B
:100A7000816841F08041816007E0016C41F0100124
:100A80000164416C41F001014164002018BD000087
:100A90001000002040420F0000230140200000040D
:100AA000002001402DE9F84FDFF8B4A10022012415
:100AB0000AF1040B03254FF00F090BF1040E00BFE0
:100AC0000B6804FA02F63340B34272D10F7907F093
:100AD0000307012F01D0022F16D187684FEA420881
:100AE00005FA08FC27EA0C07D1F80CC00CFA08FC40
:100AF0004CEA070CC0F808C04768B7430E79C6F344
:100B0000001696403E4346600E79F643B6070DD078
:100B1000C768560005FA06FC27EA0C07D1F808C09A
:100B20000CFA06FC4CEA070CC0F80CC00E7906F073
:100B30000306022E10D1D60800EB8608D8F82060F4
:100B400057074FEAD76C09FA0CF7BE430F6907FA4B
:100B50000CF73743C8F8207006684FEA420C05FAD4
:100B60000CF7BE430F7907F0030707FA0CF737437A
:100B700007604E68F6006DD53A4E376847F48047F7
:100B80003760366822F0030706F480460096364E3A
:100B900007EB060CDCF8086897073F0F09FA07F81F
:100BA00026EA0806DFF8C480404503D14FF000086C
:100BB0001EE04FE0DFF8B880404502D14FF0010859
:100BC00016E0DFF8B080404502D14FF002080FE098
:100BD000DFF8A480404502D14FF0030808E0DFF8B9
:100BE0009C80404502D14FF0040801E04FF0070817
:100BF00008FA07F848EA0608CCF80888DAF800602E
:100C00005746D1F804C09E435FEACC3C00D51E4352
:100C10003E60DBF800605F46D1F804C09E435FEAA7
:100C20008C3C00D51E433E60DEF800607746D1F86C
:100C300004C09E435FEACC2C00D51E433E60084FA3
:100C40000C373E68D1F804C09E435FEA8C2C00D577
:100C50001E433E60521C102AFFF432AFBDE8F88FED
:100C6000003C014044380240003001400000024096
:100C70000004024000080240000C02400010024044
:100C80000AB1816170470904FBE7000001488068F0
:100C90007047000004000020024881680278114477
:100CA00081607047040000200B4810B5016841F4D2
:100CB00000710160016841F480610160016841F4E4
:100CC00080710160032000F06FF8002000F006F84A
:100CD00000F024F8002010BD003C024070B50D4D1E
:100CE00004464FF47A712878B1FBF0F00A4909689C
:100CF000B1FBF0F000F0EAFA48B9102C07D200225C
:100D00002146501E00F030F800206C6070BD0120BC
:100D100070BD000004000020100000200A4808B543
:100D2000016841F480410160006800F48040009057
:100D30000548001F016841F080510160006800F023
:100D40008050009008BD000044380240002809DBB4
:100D500000F01F02012191404009800000F1E020D5
:100D6000C0F8001170470000F0B40E4B1B680C4631
:100D7000C3F30223C3F10705042D00D90425191D6F
:100D8000072901D2002300E0DB1E012606FA05F147
:100D9000491E214099409E40761E16403143F0BCCA
:100DA00000F021BE0CED00E0064900F007020868E3
:100DB0004FF6FF03184040EA0220034A1043086040
:100DC000704700000CED00E00000FA052DE9F04747
:100DD0000E46050065D0DFF81481D8F80000F7B2A0
:100DE00000F00700B04207D288F80070D8F8000081
:100DF00000F00700B04254D128683D4C810712D55D
:100E0000400703D5206840F4E050206028780007B0
:100E100003D5206840F4604020602068A96820F075
:100E2000F000084320602878C0072DD0304968685A
:100E30000839012812D0022813D0032811D00968DC
:100E4000890700292DDA216821F00301014321607F
:100E5000FFF71CFF814641F2883A0EE009688903DA
:100E6000EFE709688901ECE7FFF710FFA0EB090144
:100E7000514502D90320BDE8F0872068696800F079
:100E80000C00B0EB810FEFD1D8F80010404601F014
:100E90000701B14207D90770006800F00700B042AF
:100EA00001D00120E7E72878400705D52068E968E8
:100EB00020F4E050084320602878000706D5206819
:100EC000296920F4604040EAC100206000F018F871
:100ED0002168084AC1F30311515CC8400649086003
:100EE00006480068FFF7FAFE0020C4E7003C024015
:100EF00008380240881A000810000020080000206E
:100F0000154810B5006810F00C02144813D04110B9
:100F1000042A0FD0082A0ED10F4C241F2268236800
:100F200002F03F025B0207D52068C0F38810A0FBE7
:100F3000010106E0084610BD2168C1F38811A1FB3C
:100F400000010023FFF746F92168C1F30141491C64
:100F50004900B0FBF1F010BD083802400024F40055
:100F60002DE9F84F04006ED02078DFF84C93C007CD
:100F7000A9F104054AD009F104000168C1F3810117
:100F8000012908D00068C0F3810002280AD1D9F8ED
:100F90000000400206D52868800337D56068002825
:100FA000E1D033E06068B0F5803F10D0B0F5A02FFD
:100FB000286810D020F480302860286820F4802031
:100FC00028606068A8B1FFF761FE06460DE028685A
:100FD00040F48030F4E740F480202860F7E700BF59
:100FE000FFF754FE801B642873D828688003F7D568
:100FF0000CE0FFF74BFE064605E000BFFFF746FE9C
:10100000801B6428F0D828688003F7D42078DFF8A4
:10101000AC8280074FF0000A3ED5A748001D01684A
:1010200011F00C0F08D00068C0F3810002280BD12A
:10103000D9F80000400207D42868800716D5E06878
:10104000012800D112E033E1E068B8B10120C8F80E
:101050000000FFF71BFE064605E000BFFFF716FE87
:10106000801B0228C0D828688007F7D52868216926
:1010700020F0F80040EAC10028600DE0C8F800A0A8
:10108000FFF704FE064604E0FFF700FE801B02287F
:101090001FD828688007F7D42078000722D5864F0C
:1010A00087486169703771B101210160FFF7EEFD7A
:1010B000064604E0FFF7EAFD801B022809D83868DD
:1010C0008007F7D50EE0C0F800A0FFF7DFFD064669
:1010D00005E082E0FFF7DAFD801B02287DD8386842
:1010E0008007F7D42078400768D5DFF8CCB1002717
:1010F0000BF13C0BDBF80000C0000BD4DBF8001058
:1011000041F08051CBF80010DBF80000012700F01F
:10111000805000906B4E3068C00510D4306840F4A9
:1011200080703060FFF7B2FD009005E0FFF7AEFD84
:101130000099401A022850D83068C005F6D55E4E96
:10114000A0686C3601280FD00528306810D020F038
:1011500001003060306820F004003060A068B8B151
:10116000FFF794FD00900FE0306840F00100F4E7D5
:1011700040F004003060F7E7FFF788FD0099411A5E
:1011800041F28830814266D830688007F4D50EE09D
:10119000FFF77CFD009007E0FFF778FD0099411A0A
:1011A00041F28830814256D830688007F4D42FB19C
:1011B000DBF8001021F08051CBF80010A069C8B313
:1011C0003D49091D0968C1F3810102294AD002285D
:1011D000504607D0C8F8600000E03CE0FFF756FD3D
:1011E00004463BE04746C8F86000FFF74FFD06465F
:1011F00005E000BFFFF74AFD801B02282BD82868B6
:101200008001F7D4D4E907010843A16A2E4A4908AE
:1012100002EB0141626A41EA8211084394F82C1002
:1012200040EA0161C9F8001001203866FFF72EFD81
:10123000044606E03EE000BFFFF728FD001B022841
:1012400009D828688001F7D534E000BFFFF71EFDFC
:10125000001B022802D90320BDE8F88F286880010E
:10126000F4D427E00128F7D0D9F80000E26900F4AF
:10127000800191421CD1226A00F03F01914217D1B6
:1012800047F6C071626A0140B1EB821F10D1A26AB9
:101290004FF0FF3300F4403103EB5202B1EB024F49
:1012A00006D194F82C1000F07060B0EB016F01D003
:1012B0000120D1E70020CFE7043802400000474278
:1012C000800E4742007000400000FFFF10B5401E36
:1012D000B0F1807F01D3012010BD4FF0E0246061A8
:1012E0000F21601700F07FFB0020A0610720206124
:1012F000002010BD7047704710B5040003D094F86B
:101300003D0010B107E0012010BD002084F83C0032
:10131000204600F01FF8022084F83D00211D2068BF
:1013200000F014FB012084F8460084F83E0084F8A5
:101330003F0084F8400084F8410084F8420084F8BB
:10134000430084F8440084F8450084F83D00002000
:1013500010BD000008B500680B49884212D10B4847
:10136000016841F4003101600068002200F400309F
:10137000009011461920FFF7F7FCBDE8084019203E
:10138000FFF7E4BC08BD00000044014044380240BF
:1013900090F83D10012901D001207047022180F80A
:1013A0003D100168CA6842F00102CA6000680E4937
:1013B00088420ED0B0F1804F0BD00C49884208D043
:1013C0000B49884205D00B49884202D00A4988421D
:1013D00004D1816801F00701062903D0016841F0BA
:1013E000010101600020704700000140000400403E
:1013F00000080040000C004000400140704770B5FC
:101400000446006801694FF00005C943890715D4F7
:10141000C168C943890711D4E91E01610120207701
:10142000206880698007204602D0FFF7E7FF04E0CC
:1014300000F098F8204600F096F8257720680169BA
:10144000C943490717D4C168C943490713D46FF08A
:1014500004010161022020772068806910F4407F38
:10146000204602D0FFF7CAFF04E000F07BF82046D8
:1014700000F079F8257720680169C943090716D477
:10148000C168C943090712D46FF008010161042043
:1014900020772068C0698007204602D0FFF7AEFFA2
:1014A00004E000F05FF8204600F05DF82577206842
:1014B0000169C943C90617D4C168C943C90613D411
:1014C0006FF010010161082020772068C06910F4D6
:1014D000407F204602D0FFF791FF04E000F042F881
:1014E000204600F040F8257720680169C943C90704
:1014F00008D1C168C943C90704D1891E01612046CA
:1015000000F032F820680169C943090609D4C168AE
:10151000C943090605D46FF0800101612046FFF739
:10152000E9FE20680169C943490609D4C168C94375
:10153000490605D46FF040010161204600F040F8F3
:1015400020680169C94389060BD4C168C94389066B
:1015500007D46FF0200101612046BDE87040FFF71D
:10156000CABE70BD704770470F4910B5884219D187
:10157000A1F14800FFF724F9FEF7E1FE9FED0B1BF8
:1015800053EC112BFEF769FE9FED0A1B53EC112B58
:10159000FEF763FEFEF7E0FE08490860BDE8104074
:1015A00000F040B810BD00005C0000206666666672
:1015B00066660A40000000000000303F0000002086
:1015C0007047FEE7FDEEC00A10B5002010EE901A3D
:1015D000134A0A2308E000BF91FBF3F403FB141441
:1015E000145491FBF3F1401C002901DD0428F3DBC6
:1015F000F8EEE00AB2EE041A30EE600A0CE000BF2A
:1016000060EE010ABDEEE00A10EE101A1154B8EEB9
:10161000C00A401C30EEC00A0428F1DB10BD0000F7
:10162000A400002070B5484CE188484D00222846AF
:10163000FFF726FB2189464E01223046FFF720FBAB
:101640002079205C04F10A010A2813D2DFE800F0B7
:10165000050E1B21282F353E445108894A89104325
:101660008A89CB891A4310430A8A3FE0488930E0CF
:101670001043E080207970B301284DD002285BD060
:1016800003284DD15CE008894A891043CA890B8A36
:1016900004E008894A8910438A89CB891A4330E0DB
:1016A00048898A8910434A8A8B8A1A43E0E7088965
:1016B0008A891043CA894B8AF0E708898A891043CE
:1016C000CA890B8A1A4310434A8A1AE008894A8950
:1016D00010438A89CCE717E008894A8910438A8930
:1016E000CB891A4310430A8A10438A8A10434A8AD4
:1016F000BEE708894A8910438A89CB891A43104377
:101700000A8A10438A8AB3E708882081E088C98A58
:101710000843E080022002E04888208103202071F5
:10172000E18801222846FFF7ABFA21893046BDE85F
:1017300070400022FFF7A4BA888820810420EEE7D9
:10174000C88820810120EAE7A400002000040240AC
:10175000000802400B4810B54021018080224280E1
:101760008B008380CC00C480022404810424448143
:10177000082484811024C48120240482418282822E
:10178000C38210BDAE0000207FB500241548009430
:10179000019402941249039401604FF48031C0E92E
:1017A000011401250461057680F820400E49C0E946
:1017B0000A14C561C46080F830404561FFF7A1F8A4
:1017C00008B172B6FEE70320CDE900056946029430
:1017D0000448FEF741FF002801D072B6FEE77FBD46
:1017E00000200140140000200100000F2DE9F0410D
:1017F00086B014216846FEF725FD234800240168C1
:1018000041F080010160016801F0800105910168EB
:1018100041F001010160016801F0010105910168D9
:1018200041F002010160016801F0020105910168C7
:1018300041F0040101600068144F00F004004FF40F
:10184000FF750590002229463846FFF719FADFF8A0
:1018500040804FF47076002231464046FFF710FA80
:1018600000950125CDE90154694638460394FFF7F8
:1018700019F90096CDE90154694640460394FFF7F3
:1018800011F906B0BDE8F081303802400004024092
:1018900000080240FEE7FEE770477047FFF7FCB91B
:1018A00030B593B030216846FEF7CCFC14210CA86B
:1018B000FEF7C8FC1C480025016841F0805101601A
:1018C000006800F0805011901848016841F44041D0
:1018D00001600068022400F4404011900120009053
:1018E0004FF4A02001906005CDE9064008AA04202D
:1018F000642182E813000B906846FFF731FB08B1C2
:1019000072B6FEE70CA90F2081E831004FF4805039
:10191000CDE90F0503210CA8FFF758FA002801D0E4
:1019200072B6FEE713B030BD403802400070004090
:101930000248016841F470010160704788ED00E0E1
:101940000148FFF75CBD00005C000020F0B50268B4
:101950001D4B1E4C9F031E4D1E4E984207D0B84291
:1019600005D0A04203D0A84201D0B04204D122F059
:10197000700C4A6842EA0C02984210D0B8420ED06D
:10198000A0420CD0A8420AD0B04208D0124CA042CB
:1019900005D0124CA04202D0114CA04203D122F437
:1019A0004074CA6822434C6922F0800222430260DC
:1019B0008A68C2620A688262984201D10969016339
:1019C00001214161F0BD0000000001400004004021
:1019D00000080040000C004000400140004401406D
:1019E00000480140FEE70907090E002804DB00F16A
:1019F000E02080F80014704700F00F0000F1E020B4
:101A000080F8141D704702E008C8121F08C1002AA0
:101A1000FAD170477047002001E001C1121F002A6F
:101A2000FBD17047FFF740F9FFF73AFFFFF7DEFE03
:101A3000FFF7AAFE124811490024016042F20F711B
:101A4000C0E90114C0E903148461FFF755FC08B133
:101A500072B6FEE70A48FFF79BFC09484838FEF7D4
:101A6000B3FF074848300471FFF774FEDFED051A35
:101A7000B0EE610AFFF7A6FDFAE70000004401405E
:101A80005C000020DA0F4940000000000000000068
:101A90000102030406070809B81A00080000002024
:101AA00014000000061A0008CC1A000814000020D8
:101AB000B4040000161A0008000000000100000035
:0C1AC00010000000000000000024F400F2
:040000050800019955
:00000001FF
